{
  "abi": [
    {
      "inputs": [
        {
          "internalType": "uint256",
          "name": "amount",
          "type": "uint256"
        },
        {
          "internalType": "bytes32",
          "name": "from",
          "type": "bytes32"
        },
        {
          "internalType": "bytes32",
          "name": "to",
          "type": "bytes32"
        },
        {
          "internalType": "address",
          "name": "contractAddr",
          "type": "address"
        }
      ],
      "name": "_transfer",
      "outputs": [
        {
          "internalType": "bool",
          "name": "",
          "type": "bool"
        }
      ],
      "stateMutability": "nonpayable",
      "type": "function"
    },
    {
      "inputs": [
        {
          "internalType": "bytes32",
          "name": "",
          "type": "bytes32"
        }
      ],
      "name": "accountAddr",
      "outputs": [
        {
          "internalType": "address",
          "name": "",
          "type": "address"
        }
      ],
      "stateMutability": "view",
      "type": "function"
    },
    {
      "inputs": [
        {
          "internalType": "address",
          "name": "",
          "type": "address"
        },
        {
          "internalType": "bytes32",
          "name": "",
          "type": "bytes32"
        }
      ],
      "name": "accountBalances",
      "outputs": [
        {
          "internalType": "uint256",
          "name": "",
          "type": "uint256"
        }
      ],
      "stateMutability": "view",
      "type": "function"
    },
    {
      "inputs": [
        {
          "internalType": "uint256",
          "name": "amount",
          "type": "uint256"
        }
      ],
      "name": "calculateFee",
      "outputs": [
        {
          "internalType": "uint256",
          "name": "",
          "type": "uint256"
        }
      ],
      "stateMutability": "pure",
      "type": "function"
    },
    {
      "inputs": [
        {
          "internalType": "bytes32",
          "name": "name",
          "type": "bytes32"
        }
      ],
      "name": "createAccount",
      "outputs": [
        {
          "internalType": "bool",
          "name": "",
          "type": "bool"
        }
      ],
      "stateMutability": "nonpayable",
      "type": "function"
    },
    {
      "inputs": [
        {
          "internalType": "uint256",
          "name": "amount",
          "type": "uint256"
        },
        {
          "internalType": "address",
          "name": "contractAddr",
          "type": "address"
        },
        {
          "internalType": "bytes32",
          "name": "name",
          "type": "bytes32"
        }
      ],
      "name": "deposit",
      "outputs": [
        {
          "internalType": "bool",
          "name": "",
          "type": "bool"
        }
      ],
      "stateMutability": "nonpayable",
      "type": "function"
    },
    {
      "inputs": [
        {
          "internalType": "bytes32",
          "name": "accountName",
          "type": "bytes32"
        },
        {
          "internalType": "address",
          "name": "contractAddr",
          "type": "address"
        }
      ],
      "name": "getAccountBalance",
      "outputs": [
        {
          "internalType": "uint256",
          "name": "",
          "type": "uint256"
        }
      ],
      "stateMutability": "view",
      "type": "function"
    },
    {
      "inputs": [
        {
          "internalType": "uint256",
          "name": "amount",
          "type": "uint256"
        },
        {
          "internalType": "bytes32",
          "name": "from",
          "type": "bytes32"
        },
        {
          "internalType": "bytes32[5]",
          "name": "_to",
          "type": "bytes32[5]"
        },
        {
          "internalType": "address",
          "name": "contractAddr",
          "type": "address"
        }
      ],
      "name": "multiTransfer",
      "outputs": [
        {
          "internalType": "bool",
          "name": "",
          "type": "bool"
        }
      ],
      "stateMutability": "nonpayable",
      "type": "function"
    },
    {
      "inputs": [
        {
          "internalType": "uint256",
          "name": "amount",
          "type": "uint256"
        },
        {
          "internalType": "bytes32",
          "name": "from",
          "type": "bytes32"
        },
        {
          "internalType": "bytes32",
          "name": "to",
          "type": "bytes32"
        },
        {
          "internalType": "address",
          "name": "contractAddr",
          "type": "address"
        }
      ],
      "name": "transfer",
      "outputs": [
        {
          "internalType": "bool",
          "name": "",
          "type": "bool"
        }
      ],
      "stateMutability": "nonpayable",
      "type": "function"
    },
    {
      "inputs": [
        {
          "internalType": "uint256",
          "name": "amount",
          "type": "uint256"
        },
        {
          "internalType": "address",
          "name": "contractAddr",
          "type": "address"
        },
        {
          "internalType": "bytes32",
          "name": "name",
          "type": "bytes32"
        }
      ],
      "name": "withdraw",
      "outputs": [
        {
          "internalType": "bool",
          "name": "",
          "type": "bool"
        }
      ],
      "stateMutability": "nonpayable",
      "type": "function"
    }
  ],
  "bytecode": "608060405234801561001057600080fd5b5061087e806100206000396000f3fe608060405234801561001057600080fd5b506004361061009e5760003560e01c80637c0c830a116100665780637c0c830a1461017157806399a5d747146101845780639e864c7014610197578063e64fe366146101aa578063fe8ca4af146101d257600080fd5b806331ce89bc146100a35780633da11992146100cb5780634a7603d81461010c57806378c30caa1461014b5780637b98afcd1461015e575b600080fd5b6100b66100b136600461061e565b610204565b60405190151581526020015b60405180910390f35b6100f46100d936600461065d565b6001602052600090815260409020546001600160a01b031681565b6040516001600160a01b0390911681526020016100c2565b61013d61011a366004610676565b6001600160a01b0316600090815260208181526040808320938352929052205490565b6040519081526020016100c2565b6100b66101593660046106a2565b6102ab565b6100b661016c3660046106f0565b610306565b6100b661017f36600461061e565b610468565b61013d61019236600461065d565b6104d1565b6100b66101a53660046106f0565b6104fa565b61013d6101b8366004610725565b600060208181529281526040808220909352908152205481565b6100b66101e036600461065d565b600090815260016020819052604090912080546001600160a01b0319163317905590565b6001600160a01b0381166000908152602081815260408083208684529091528120548086111561023357600080fd5b6001600160a01b03831660009081526020818152604080832088845290915281208054889290610264908490610765565b90915550506001600160a01b0383166000908152602081815260408083208784529091528120805488929061029a90849061077c565b909155506001979650505050505050565b6000805b60058110156102fa5760008482600581106102cc576102cc610794565b6020020135905080156102e7576102e587878387610468565b505b50806102f2816107aa565b9150506102af565b50600195945050505050565b6000818152600160205260408120546001600160a01b03168061032857600080fd5b604051636eb1769f60e11b81523360048201523060248201526000906001600160a01b0386169063dd62ed3e90604401602060405180830381865afa158015610375573d6000803e3d6000fd5b505050506040513d601f19601f8201168201806040525081019061039991906107c5565b9050808611156103a857600080fd5b6040516323b872dd60e01b8152336004820152306024820152604481018790526000906001600160a01b038716906323b872dd906064016020604051808303816000875af11580156103fe573d6000803e3d6000fd5b505050506040513d601f19601f8201168201806040525081019061042291906107de565b6001600160a01b03871660009081526020818152604080832089845290915281208054929350899290919061045890849061077c565b9091555090979650505050505050565b6000838152600160205260408120546001600160a01b031633811461048c57600080fd5b6000848152600160205260409020546001600160a01b03163381146104b7576104b4876104d1565b96505b60006104c588888888610204565b98975050505050505050565b6000600a6104e0836001610807565b6104ea9190610826565b6104f49083610765565b92915050565b6000818152600160205260408120546001600160a01b031633811461051e57600080fd5b6001600160a01b0384166000908152602081815260408083208684529091529020548086111561054d57600080fd5b6001600160a01b0385166000908152602081815260408083208784529091528120805488929061057e908490610765565b909155505060405163a9059cbb60e01b8152336004820152602481018790526000906001600160a01b0387169063a9059cbb906044016020604051808303816000875af11580156105d3573d6000803e3d6000fd5b505050506040513d601f19601f820116820180604052508101906105f791906107de565b979650505050505050565b80356001600160a01b038116811461061957600080fd5b919050565b6000806000806080858703121561063457600080fd5b84359350602085013592506040850135915061065260608601610602565b905092959194509250565b60006020828403121561066f57600080fd5b5035919050565b6000806040838503121561068957600080fd5b8235915061069960208401610602565b90509250929050565b60008060008061010085870312156106b957600080fd5b843593506020850135925060e08501868111156106d557600080fd5b6040860192506106e481610602565b91505092959194509250565b60008060006060848603121561070557600080fd5b8335925061071560208501610602565b9150604084013590509250925092565b6000806040838503121561073857600080fd5b61074183610602565b946020939093013593505050565b634e487b7160e01b600052601160045260246000fd5b6000828210156107775761077761074f565b500390565b6000821982111561078f5761078f61074f565b500190565b634e487b7160e01b600052603260045260246000fd5b60006000198214156107be576107be61074f565b5060010190565b6000602082840312156107d757600080fd5b5051919050565b6000602082840312156107f057600080fd5b8151801515811461080057600080fd5b9392505050565b60008160001904831182151516156108215761082161074f565b500290565b60008261084357634e487b7160e01b600052601260045260246000fd5b50049056fea2646970667358221220abd695303c14222848d61e010c09e033023060cc46b8b298b840de136a91c4b164736f6c634300080b0033",
  "bytecodeSha1": "08b90832dd8ba21bee1132f9708e1e975ecc08db",
  "compiler": {
    "evm_version": "istanbul",
    "optimizer": {
      "enabled": true,
      "runs": 200
    },
    "version": "0.8.11+commit.d7f03943"
  },
  "contractName": "Bank",
  "language": "Solidity",
  "natspec": {
    "kind": "dev",
    "methods": {},
    "version": 1
  },
  "opcodes": "PUSH1 0x80 PUSH1 0x40 MSTORE CALLVALUE DUP1 ISZERO PUSH2 0x10 JUMPI PUSH1 0x0 DUP1 REVERT JUMPDEST POP PUSH1 0x4 CALLDATASIZE LT PUSH2 0x9E JUMPI PUSH1 0x0 CALLDATALOAD PUSH1 0xE0 SHR DUP1 PUSH4 0x7C0C830A GT PUSH2 0x66 JUMPI DUP1 PUSH4 0x7C0C830A EQ PUSH2 0x171 JUMPI DUP1 PUSH4 0x99A5D747 EQ PUSH2 0x184 JUMPI DUP1 PUSH4 0x9E864C70 EQ PUSH2 0x197 JUMPI DUP1 PUSH4 0xE64FE366 EQ PUSH2 0x1AA JUMPI DUP1 PUSH4 0xFE8CA4AF EQ PUSH2 0x1D2 JUMPI PUSH1 0x0 DUP1 REVERT JUMPDEST DUP1 PUSH4 0x31CE89BC EQ PUSH2 0xA3 JUMPI DUP1 PUSH4 0x3DA11992 EQ PUSH2 0xCB JUMPI DUP1 PUSH4 0x4A7603D8 EQ PUSH2 0x10C JUMPI DUP1 PUSH4 0x78C30CAA EQ PUSH2 0x14B JUMPI DUP1 PUSH4 0x7B98AFCD EQ PUSH2 0x15E JUMPI JUMPDEST PUSH1 0x0 DUP1 REVERT JUMPDEST PUSH2 0xB6 PUSH2 0xB1 CALLDATASIZE PUSH1 0x4 PUSH2 0x61E JUMP JUMPDEST PUSH2 0x204 JUMP JUMPDEST PUSH1 0x40 MLOAD SWAP1 ISZERO ISZERO DUP2 MSTORE PUSH1 0x20 ADD JUMPDEST PUSH1 0x40 MLOAD DUP1 SWAP2 SUB SWAP1 RETURN JUMPDEST PUSH2 0xF4 PUSH2 0xD9 CALLDATASIZE PUSH1 0x4 PUSH2 0x65D JUMP JUMPDEST PUSH1 0x1 PUSH1 0x20 MSTORE PUSH1 0x0 SWAP1 DUP2 MSTORE PUSH1 0x40 SWAP1 KECCAK256 SLOAD PUSH1 0x1 PUSH1 0x1 PUSH1 0xA0 SHL SUB AND DUP2 JUMP JUMPDEST PUSH1 0x40 MLOAD PUSH1 0x1 PUSH1 0x1 PUSH1 0xA0 SHL SUB SWAP1 SWAP2 AND DUP2 MSTORE PUSH1 0x20 ADD PUSH2 0xC2 JUMP JUMPDEST PUSH2 0x13D PUSH2 0x11A CALLDATASIZE PUSH1 0x4 PUSH2 0x676 JUMP JUMPDEST PUSH1 0x1 PUSH1 0x1 PUSH1 0xA0 SHL SUB AND PUSH1 0x0 SWAP1 DUP2 MSTORE PUSH1 0x20 DUP2 DUP2 MSTORE PUSH1 0x40 DUP1 DUP4 KECCAK256 SWAP4 DUP4 MSTORE SWAP3 SWAP1 MSTORE KECCAK256 SLOAD SWAP1 JUMP JUMPDEST PUSH1 0x40 MLOAD SWAP1 DUP2 MSTORE PUSH1 0x20 ADD PUSH2 0xC2 JUMP JUMPDEST PUSH2 0xB6 PUSH2 0x159 CALLDATASIZE PUSH1 0x4 PUSH2 0x6A2 JUMP JUMPDEST PUSH2 0x2AB JUMP JUMPDEST PUSH2 0xB6 PUSH2 0x16C CALLDATASIZE PUSH1 0x4 PUSH2 0x6F0 JUMP JUMPDEST PUSH2 0x306 JUMP JUMPDEST PUSH2 0xB6 PUSH2 0x17F CALLDATASIZE PUSH1 0x4 PUSH2 0x61E JUMP JUMPDEST PUSH2 0x468 JUMP JUMPDEST PUSH2 0x13D PUSH2 0x192 CALLDATASIZE PUSH1 0x4 PUSH2 0x65D JUMP JUMPDEST PUSH2 0x4D1 JUMP JUMPDEST PUSH2 0xB6 PUSH2 0x1A5 CALLDATASIZE PUSH1 0x4 PUSH2 0x6F0 JUMP JUMPDEST PUSH2 0x4FA JUMP JUMPDEST PUSH2 0x13D PUSH2 0x1B8 CALLDATASIZE PUSH1 0x4 PUSH2 0x725 JUMP JUMPDEST PUSH1 0x0 PUSH1 0x20 DUP2 DUP2 MSTORE SWAP3 DUP2 MSTORE PUSH1 0x40 DUP1 DUP3 KECCAK256 SWAP1 SWAP4 MSTORE SWAP1 DUP2 MSTORE KECCAK256 SLOAD DUP2 JUMP JUMPDEST PUSH2 0xB6 PUSH2 0x1E0 CALLDATASIZE PUSH1 0x4 PUSH2 0x65D JUMP JUMPDEST PUSH1 0x0 SWAP1 DUP2 MSTORE PUSH1 0x1 PUSH1 0x20 DUP2 SWAP1 MSTORE PUSH1 0x40 SWAP1 SWAP2 KECCAK256 DUP1 SLOAD PUSH1 0x1 PUSH1 0x1 PUSH1 0xA0 SHL SUB NOT AND CALLER OR SWAP1 SSTORE SWAP1 JUMP JUMPDEST PUSH1 0x1 PUSH1 0x1 PUSH1 0xA0 SHL SUB DUP2 AND PUSH1 0x0 SWAP1 DUP2 MSTORE PUSH1 0x20 DUP2 DUP2 MSTORE PUSH1 0x40 DUP1 DUP4 KECCAK256 DUP7 DUP5 MSTORE SWAP1 SWAP2 MSTORE DUP2 KECCAK256 SLOAD DUP1 DUP7 GT ISZERO PUSH2 0x233 JUMPI PUSH1 0x0 DUP1 REVERT JUMPDEST PUSH1 0x1 PUSH1 0x1 PUSH1 0xA0 SHL SUB DUP4 AND PUSH1 0x0 SWAP1 DUP2 MSTORE PUSH1 0x20 DUP2 DUP2 MSTORE PUSH1 0x40 DUP1 DUP4 KECCAK256 DUP9 DUP5 MSTORE SWAP1 SWAP2 MSTORE DUP2 KECCAK256 DUP1 SLOAD DUP9 SWAP3 SWAP1 PUSH2 0x264 SWAP1 DUP5 SWAP1 PUSH2 0x765 JUMP JUMPDEST SWAP1 SWAP2 SSTORE POP POP PUSH1 0x1 PUSH1 0x1 PUSH1 0xA0 SHL SUB DUP4 AND PUSH1 0x0 SWAP1 DUP2 MSTORE PUSH1 0x20 DUP2 DUP2 MSTORE PUSH1 0x40 DUP1 DUP4 KECCAK256 DUP8 DUP5 MSTORE SWAP1 SWAP2 MSTORE DUP2 KECCAK256 DUP1 SLOAD DUP9 SWAP3 SWAP1 PUSH2 0x29A SWAP1 DUP5 SWAP1 PUSH2 0x77C JUMP JUMPDEST SWAP1 SWAP2 SSTORE POP PUSH1 0x1 SWAP8 SWAP7 POP POP POP POP POP POP POP JUMP JUMPDEST PUSH1 0x0 DUP1 JUMPDEST PUSH1 0x5 DUP2 LT ISZERO PUSH2 0x2FA JUMPI PUSH1 0x0 DUP5 DUP3 PUSH1 0x5 DUP2 LT PUSH2 0x2CC JUMPI PUSH2 0x2CC PUSH2 0x794 JUMP JUMPDEST PUSH1 0x20 MUL ADD CALLDATALOAD SWAP1 POP DUP1 ISZERO PUSH2 0x2E7 JUMPI PUSH2 0x2E5 DUP8 DUP8 DUP4 DUP8 PUSH2 0x468 JUMP JUMPDEST POP JUMPDEST POP DUP1 PUSH2 0x2F2 DUP2 PUSH2 0x7AA JUMP JUMPDEST SWAP2 POP POP PUSH2 0x2AF JUMP JUMPDEST POP PUSH1 0x1 SWAP6 SWAP5 POP POP POP POP POP JUMP JUMPDEST PUSH1 0x0 DUP2 DUP2 MSTORE PUSH1 0x1 PUSH1 0x20 MSTORE PUSH1 0x40 DUP2 KECCAK256 SLOAD PUSH1 0x1 PUSH1 0x1 PUSH1 0xA0 SHL SUB AND DUP1 PUSH2 0x328 JUMPI PUSH1 0x0 DUP1 REVERT JUMPDEST PUSH1 0x40 MLOAD PUSH4 0x6EB1769F PUSH1 0xE1 SHL DUP2 MSTORE CALLER PUSH1 0x4 DUP3 ADD MSTORE ADDRESS PUSH1 0x24 DUP3 ADD MSTORE PUSH1 0x0 SWAP1 PUSH1 0x1 PUSH1 0x1 PUSH1 0xA0 SHL SUB DUP7 AND SWAP1 PUSH4 0xDD62ED3E SWAP1 PUSH1 0x44 ADD PUSH1 0x20 PUSH1 0x40 MLOAD DUP1 DUP4 SUB DUP2 DUP7 GAS STATICCALL ISZERO DUP1 ISZERO PUSH2 0x375 JUMPI RETURNDATASIZE PUSH1 0x0 DUP1 RETURNDATACOPY RETURNDATASIZE PUSH1 0x0 REVERT JUMPDEST POP POP POP POP PUSH1 0x40 MLOAD RETURNDATASIZE PUSH1 0x1F NOT PUSH1 0x1F DUP3 ADD AND DUP3 ADD DUP1 PUSH1 0x40 MSTORE POP DUP2 ADD SWAP1 PUSH2 0x399 SWAP2 SWAP1 PUSH2 0x7C5 JUMP JUMPDEST SWAP1 POP DUP1 DUP7 GT ISZERO PUSH2 0x3A8 JUMPI PUSH1 0x0 DUP1 REVERT JUMPDEST PUSH1 0x40 MLOAD PUSH4 0x23B872DD PUSH1 0xE0 SHL DUP2 MSTORE CALLER PUSH1 0x4 DUP3 ADD MSTORE ADDRESS PUSH1 0x24 DUP3 ADD MSTORE PUSH1 0x44 DUP2 ADD DUP8 SWAP1 MSTORE PUSH1 0x0 SWAP1 PUSH1 0x1 PUSH1 0x1 PUSH1 0xA0 SHL SUB DUP8 AND SWAP1 PUSH4 0x23B872DD SWAP1 PUSH1 0x64 ADD PUSH1 0x20 PUSH1 0x40 MLOAD DUP1 DUP4 SUB DUP2 PUSH1 0x0 DUP8 GAS CALL ISZERO DUP1 ISZERO PUSH2 0x3FE JUMPI RETURNDATASIZE PUSH1 0x0 DUP1 RETURNDATACOPY RETURNDATASIZE PUSH1 0x0 REVERT JUMPDEST POP POP POP POP PUSH1 0x40 MLOAD RETURNDATASIZE PUSH1 0x1F NOT PUSH1 0x1F DUP3 ADD AND DUP3 ADD DUP1 PUSH1 0x40 MSTORE POP DUP2 ADD SWAP1 PUSH2 0x422 SWAP2 SWAP1 PUSH2 0x7DE JUMP JUMPDEST PUSH1 0x1 PUSH1 0x1 PUSH1 0xA0 SHL SUB DUP8 AND PUSH1 0x0 SWAP1 DUP2 MSTORE PUSH1 0x20 DUP2 DUP2 MSTORE PUSH1 0x40 DUP1 DUP4 KECCAK256 DUP10 DUP5 MSTORE SWAP1 SWAP2 MSTORE DUP2 KECCAK256 DUP1 SLOAD SWAP3 SWAP4 POP DUP10 SWAP3 SWAP1 SWAP2 SWAP1 PUSH2 0x458 SWAP1 DUP5 SWAP1 PUSH2 0x77C JUMP JUMPDEST SWAP1 SWAP2 SSTORE POP SWAP1 SWAP8 SWAP7 POP POP POP POP POP POP POP JUMP JUMPDEST PUSH1 0x0 DUP4 DUP2 MSTORE PUSH1 0x1 PUSH1 0x20 MSTORE PUSH1 0x40 DUP2 KECCAK256 SLOAD PUSH1 0x1 PUSH1 0x1 PUSH1 0xA0 SHL SUB AND CALLER DUP2 EQ PUSH2 0x48C JUMPI PUSH1 0x0 DUP1 REVERT JUMPDEST PUSH1 0x0 DUP5 DUP2 MSTORE PUSH1 0x1 PUSH1 0x20 MSTORE PUSH1 0x40 SWAP1 KECCAK256 SLOAD PUSH1 0x1 PUSH1 0x1 PUSH1 0xA0 SHL SUB AND CALLER DUP2 EQ PUSH2 0x4B7 JUMPI PUSH2 0x4B4 DUP8 PUSH2 0x4D1 JUMP JUMPDEST SWAP7 POP JUMPDEST PUSH1 0x0 PUSH2 0x4C5 DUP9 DUP9 DUP9 DUP9 PUSH2 0x204 JUMP JUMPDEST SWAP9 SWAP8 POP POP POP POP POP POP POP POP JUMP JUMPDEST PUSH1 0x0 PUSH1 0xA PUSH2 0x4E0 DUP4 PUSH1 0x1 PUSH2 0x807 JUMP JUMPDEST PUSH2 0x4EA SWAP2 SWAP1 PUSH2 0x826 JUMP JUMPDEST PUSH2 0x4F4 SWAP1 DUP4 PUSH2 0x765 JUMP JUMPDEST SWAP3 SWAP2 POP POP JUMP JUMPDEST PUSH1 0x0 DUP2 DUP2 MSTORE PUSH1 0x1 PUSH1 0x20 MSTORE PUSH1 0x40 DUP2 KECCAK256 SLOAD PUSH1 0x1 PUSH1 0x1 PUSH1 0xA0 SHL SUB AND CALLER DUP2 EQ PUSH2 0x51E JUMPI PUSH1 0x0 DUP1 REVERT JUMPDEST PUSH1 0x1 PUSH1 0x1 PUSH1 0xA0 SHL SUB DUP5 AND PUSH1 0x0 SWAP1 DUP2 MSTORE PUSH1 0x20 DUP2 DUP2 MSTORE PUSH1 0x40 DUP1 DUP4 KECCAK256 DUP7 DUP5 MSTORE SWAP1 SWAP2 MSTORE SWAP1 KECCAK256 SLOAD DUP1 DUP7 GT ISZERO PUSH2 0x54D JUMPI PUSH1 0x0 DUP1 REVERT JUMPDEST PUSH1 0x1 PUSH1 0x1 PUSH1 0xA0 SHL SUB DUP6 AND PUSH1 0x0 SWAP1 DUP2 MSTORE PUSH1 0x20 DUP2 DUP2 MSTORE PUSH1 0x40 DUP1 DUP4 KECCAK256 DUP8 DUP5 MSTORE SWAP1 SWAP2 MSTORE DUP2 KECCAK256 DUP1 SLOAD DUP9 SWAP3 SWAP1 PUSH2 0x57E SWAP1 DUP5 SWAP1 PUSH2 0x765 JUMP JUMPDEST SWAP1 SWAP2 SSTORE POP POP PUSH1 0x40 MLOAD PUSH4 0xA9059CBB PUSH1 0xE0 SHL DUP2 MSTORE CALLER PUSH1 0x4 DUP3 ADD MSTORE PUSH1 0x24 DUP2 ADD DUP8 SWAP1 MSTORE PUSH1 0x0 SWAP1 PUSH1 0x1 PUSH1 0x1 PUSH1 0xA0 SHL SUB DUP8 AND SWAP1 PUSH4 0xA9059CBB SWAP1 PUSH1 0x44 ADD PUSH1 0x20 PUSH1 0x40 MLOAD DUP1 DUP4 SUB DUP2 PUSH1 0x0 DUP8 GAS CALL ISZERO DUP1 ISZERO PUSH2 0x5D3 JUMPI RETURNDATASIZE PUSH1 0x0 DUP1 RETURNDATACOPY RETURNDATASIZE PUSH1 0x0 REVERT JUMPDEST POP POP POP POP PUSH1 0x40 MLOAD RETURNDATASIZE PUSH1 0x1F NOT PUSH1 0x1F DUP3 ADD AND DUP3 ADD DUP1 PUSH1 0x40 MSTORE POP DUP2 ADD SWAP1 PUSH2 0x5F7 SWAP2 SWAP1 PUSH2 0x7DE JUMP JUMPDEST SWAP8 SWAP7 POP POP POP POP POP POP POP JUMP JUMPDEST DUP1 CALLDATALOAD PUSH1 0x1 PUSH1 0x1 PUSH1 0xA0 SHL SUB DUP2 AND DUP2 EQ PUSH2 0x619 JUMPI PUSH1 0x0 DUP1 REVERT JUMPDEST SWAP2 SWAP1 POP JUMP JUMPDEST PUSH1 0x0 DUP1 PUSH1 0x0 DUP1 PUSH1 0x80 DUP6 DUP8 SUB SLT ISZERO PUSH2 0x634 JUMPI PUSH1 0x0 DUP1 REVERT JUMPDEST DUP5 CALLDATALOAD SWAP4 POP PUSH1 0x20 DUP6 ADD CALLDATALOAD SWAP3 POP PUSH1 0x40 DUP6 ADD CALLDATALOAD SWAP2 POP PUSH2 0x652 PUSH1 0x60 DUP7 ADD PUSH2 0x602 JUMP JUMPDEST SWAP1 POP SWAP3 SWAP6 SWAP2 SWAP5 POP SWAP3 POP JUMP JUMPDEST PUSH1 0x0 PUSH1 0x20 DUP3 DUP5 SUB SLT ISZERO PUSH2 0x66F JUMPI PUSH1 0x0 DUP1 REVERT JUMPDEST POP CALLDATALOAD SWAP2 SWAP1 POP JUMP JUMPDEST PUSH1 0x0 DUP1 PUSH1 0x40 DUP4 DUP6 SUB SLT ISZERO PUSH2 0x689 JUMPI PUSH1 0x0 DUP1 REVERT JUMPDEST DUP3 CALLDATALOAD SWAP2 POP PUSH2 0x699 PUSH1 0x20 DUP5 ADD PUSH2 0x602 JUMP JUMPDEST SWAP1 POP SWAP3 POP SWAP3 SWAP1 POP JUMP JUMPDEST PUSH1 0x0 DUP1 PUSH1 0x0 DUP1 PUSH2 0x100 DUP6 DUP8 SUB SLT ISZERO PUSH2 0x6B9 JUMPI PUSH1 0x0 DUP1 REVERT JUMPDEST DUP5 CALLDATALOAD SWAP4 POP PUSH1 0x20 DUP6 ADD CALLDATALOAD SWAP3 POP PUSH1 0xE0 DUP6 ADD DUP7 DUP2 GT ISZERO PUSH2 0x6D5 JUMPI PUSH1 0x0 DUP1 REVERT JUMPDEST PUSH1 0x40 DUP7 ADD SWAP3 POP PUSH2 0x6E4 DUP2 PUSH2 0x602 JUMP JUMPDEST SWAP2 POP POP SWAP3 SWAP6 SWAP2 SWAP5 POP SWAP3 POP JUMP JUMPDEST PUSH1 0x0 DUP1 PUSH1 0x0 PUSH1 0x60 DUP5 DUP7 SUB SLT ISZERO PUSH2 0x705 JUMPI PUSH1 0x0 DUP1 REVERT JUMPDEST DUP4 CALLDATALOAD SWAP3 POP PUSH2 0x715 PUSH1 0x20 DUP6 ADD PUSH2 0x602 JUMP JUMPDEST SWAP2 POP PUSH1 0x40 DUP5 ADD CALLDATALOAD SWAP1 POP SWAP3 POP SWAP3 POP SWAP3 JUMP JUMPDEST PUSH1 0x0 DUP1 PUSH1 0x40 DUP4 DUP6 SUB SLT ISZERO PUSH2 0x738 JUMPI PUSH1 0x0 DUP1 REVERT JUMPDEST PUSH2 0x741 DUP4 PUSH2 0x602 JUMP JUMPDEST SWAP5 PUSH1 0x20 SWAP4 SWAP1 SWAP4 ADD CALLDATALOAD SWAP4 POP POP POP JUMP JUMPDEST PUSH4 0x4E487B71 PUSH1 0xE0 SHL PUSH1 0x0 MSTORE PUSH1 0x11 PUSH1 0x4 MSTORE PUSH1 0x24 PUSH1 0x0 REVERT JUMPDEST PUSH1 0x0 DUP3 DUP3 LT ISZERO PUSH2 0x777 JUMPI PUSH2 0x777 PUSH2 0x74F JUMP JUMPDEST POP SUB SWAP1 JUMP JUMPDEST PUSH1 0x0 DUP3 NOT DUP3 GT ISZERO PUSH2 0x78F JUMPI PUSH2 0x78F PUSH2 0x74F JUMP JUMPDEST POP ADD SWAP1 JUMP JUMPDEST PUSH4 0x4E487B71 PUSH1 0xE0 SHL PUSH1 0x0 MSTORE PUSH1 0x32 PUSH1 0x4 MSTORE PUSH1 0x24 PUSH1 0x0 REVERT JUMPDEST PUSH1 0x0 PUSH1 0x0 NOT DUP3 EQ ISZERO PUSH2 0x7BE JUMPI PUSH2 0x7BE PUSH2 0x74F JUMP JUMPDEST POP PUSH1 0x1 ADD SWAP1 JUMP JUMPDEST PUSH1 0x0 PUSH1 0x20 DUP3 DUP5 SUB SLT ISZERO PUSH2 0x7D7 JUMPI PUSH1 0x0 DUP1 REVERT JUMPDEST POP MLOAD SWAP2 SWAP1 POP JUMP JUMPDEST PUSH1 0x0 PUSH1 0x20 DUP3 DUP5 SUB SLT ISZERO PUSH2 0x7F0 JUMPI PUSH1 0x0 DUP1 REVERT JUMPDEST DUP2 MLOAD DUP1 ISZERO ISZERO DUP2 EQ PUSH2 0x800 JUMPI PUSH1 0x0 DUP1 REVERT JUMPDEST SWAP4 SWAP3 POP POP POP JUMP JUMPDEST PUSH1 0x0 DUP2 PUSH1 0x0 NOT DIV DUP4 GT DUP3 ISZERO ISZERO AND ISZERO PUSH2 0x821 JUMPI PUSH2 0x821 PUSH2 0x74F JUMP JUMPDEST POP MUL SWAP1 JUMP JUMPDEST PUSH1 0x0 DUP3 PUSH2 0x843 JUMPI PUSH4 0x4E487B71 PUSH1 0xE0 SHL PUSH1 0x0 MSTORE PUSH1 0x12 PUSH1 0x4 MSTORE PUSH1 0x24 PUSH1 0x0 REVERT JUMPDEST POP DIV SWAP1 JUMP INVALID LOG2 PUSH5 0x6970667358 0x22 SLT KECCAK256 0xAB 0xD6 SWAP6 ADDRESS EXTCODECOPY EQ 0x22 0x28 BASEFEE 0xD6 0x1E ADD 0xC MULMOD 0xE0 CALLER MUL ADDRESS PUSH1 0xCC CHAINID 0xB8 0xB2 SWAP9 0xB8 BLOCKHASH 0xDE SGT PUSH11 0x91C4B164736F6C63430008 SIGNEXTEND STOP CALLER ",
  "sha1": "91bde6f62d02e0a3b49bd8528ac930d9b7baa3c3",
  "source": "// SPDX-License-Identifier: MIT\npragma solidity ^0.8.0;\n\ninterface IERC20 {\n  function allowance(address owner, address spender) external view returns (uint256 remaining);\n  function transfer(address to, uint256 value) external returns (bool success);\n  function transferFrom(address from, address to, uint256 value) external returns (bool success);\n}\n\ncontract Bank {\n  // Contract Address -> (Client Account Name -> Balance)\n  mapping(address => mapping(bytes32 => uint256)) public accountBalances;\n\n  // Client Account Name -> Client Address\n  mapping(bytes32 => address) public accountAddr;\n\n  function createAccount(bytes32 name) external returns(bool) {\n    address clientAddress = msg.sender;\n    accountAddr[name] = clientAddress;\n    return true;\n  }\n\n  function getAccountBalance(bytes32 accountName, address contractAddr) external view returns(uint256) {\n    return accountBalances[contractAddr][accountName];\n  }\n\n\n  function deposit(uint256 amount, address contractAddr, bytes32 name) external returns (bool) {\n    \n    address clientAddress = accountAddr[name];\n    require(clientAddress != address(0x0)); // dev: Account does not exist\n    \n    uint256 allowance = IERC20(contractAddr).allowance(msg.sender, address(this));\n    require(amount <= allowance); // dev: Not enough allowance\n\n    bool deposited = IERC20(contractAddr).transferFrom(msg.sender, address(this), amount);\n    accountBalances[contractAddr][name] += amount;\n\n    return deposited;\n\n  }\n\n  function withdraw(uint256 amount, address contractAddr, bytes32 name) external returns (bool) {\n    address clientAddress = accountAddr[name];\n    require(msg.sender == clientAddress); // dev: Account not owned by caller\n\n    uint256 balance = accountBalances[contractAddr][name];\n    require(amount <= balance); // dev: Amount more than balance\n\n    accountBalances[contractAddr][name] -= amount;\n    bool withdrawn = IERC20(contractAddr).transfer(msg.sender, amount);\n\n    return withdrawn;\n\n  }\n\n  function _transfer(uint256 amount, bytes32 from, bytes32 to, address contractAddr) public returns (bool) {\n    \n    uint256 balance = accountBalances[contractAddr][from];\n    require(amount <= balance); // dev: Amount more than balance\n\n    accountBalances[contractAddr][from] -= amount;\n    accountBalances[contractAddr][to] += amount;\n\n    return true;\n  }\n\n  function calculateFee(uint256 amount) public pure returns (uint256) {\n    return amount - amount * 1/10;\n  }\n\n  function transfer(uint256 amount, bytes32 from, bytes32 to, address contractAddr) public returns (bool) {\n    \n    address senderAddr = accountAddr[from];\n    require(senderAddr == msg.sender); // dev: Account does not belong to caller\n\n    address recipientAddr = accountAddr[to];\n\n    if (recipientAddr != msg.sender) {\n      amount = calculateFee(amount);\n    }\n\n    bool transferred = _transfer(amount, from, to, contractAddr);\n\n    return transferred;\n  }\n\n  function multiTransfer(uint256 amount, bytes32 from, bytes32[5] calldata _to, address contractAddr) external returns (bool) {\n    for (uint i=0; i<_to.length; i++) {\n      bytes32 to = _to[i];\n      \n      if (to != 0) {\n        transfer(amount, from, to, contractAddr);\n      }\n      \n    }\n\n    return true;\n  }\n\n}",
  "sourcePath": "contracts/Bank.sol",
  "type": "contract"
}